{
  "_format": "hh-sol-artifact-1",
  "contractName": "Recommendoor",
  "sourceName": "contracts/Recommendoor.sol",
  "abi": [
    {
      "anonymous": false,
      "inputs": [
        {
          "indexed": true,
          "internalType": "address",
          "name": "user",
          "type": "address"
        },
        {
          "indexed": false,
          "internalType": "string",
          "name": "ipfsHash",
          "type": "string"
        },
        {
          "indexed": false,
          "internalType": "string",
          "name": "action",
          "type": "string"
        }
      ],
      "name": "InteractData",
      "type": "event"
    },
    {
      "anonymous": false,
      "inputs": [
        {
          "indexed": true,
          "internalType": "address",
          "name": "user",
          "type": "address"
        },
        {
          "indexed": false,
          "internalType": "string",
          "name": "ipfsHash",
          "type": "string"
        },
        {
          "indexed": false,
          "internalType": "string",
          "name": "channel",
          "type": "string"
        }
      ],
      "name": "UploadData",
      "type": "event"
    },
    {
      "inputs": [
        {
          "internalType": "address",
          "name": "user",
          "type": "address"
        },
        {
          "internalType": "string",
          "name": "ipfsHash",
          "type": "string"
        },
        {
          "internalType": "string",
          "name": "action",
          "type": "string"
        }
      ],
      "name": "interactContent",
      "outputs": [],
      "stateMutability": "nonpayable",
      "type": "function"
    },
    {
      "inputs": [
        {
          "internalType": "address",
          "name": "user",
          "type": "address"
        },
        {
          "internalType": "string",
          "name": "ipfsHash",
          "type": "string"
        },
        {
          "internalType": "string",
          "name": "channel",
          "type": "string"
        }
      ],
      "name": "uploadData",
      "outputs": [],
      "stateMutability": "nonpayable",
      "type": "function"
    }
  ],
  "bytecode": "0x608060405234801561001057600080fd5b50610259806100206000396000f3fe608060405234801561001057600080fd5b50600436106100365760003560e01c806327e72cfd1461003b57806392d737c214610050575b600080fd5b61004e610049366004610139565b610063565b005b61004e61005e366004610139565b6100b1565b846001600160a01b03167fe65cd2b9799ec1eeb16eda5cbc79bfa64779d006411bec2dc2849b89a4b3f398858585856040516100a294939291906101f1565b60405180910390a25050505050565b846001600160a01b03167f4d9223e988624664a5b48e90ae2be1acf27514bb45699666c70fbf0677db982b858585856040516100a294939291906101f1565b60008083601f84011261010257600080fd5b50813567ffffffffffffffff81111561011a57600080fd5b60208301915083602082850101111561013257600080fd5b9250929050565b60008060008060006060868803121561015157600080fd5b85356001600160a01b038116811461016857600080fd5b9450602086013567ffffffffffffffff8082111561018557600080fd5b61019189838a016100f0565b909650945060408801359150808211156101aa57600080fd5b506101b7888289016100f0565b969995985093965092949392505050565b81835281816020850137506000828201602090810191909152601f909101601f19169091010190565b6040815260006102056040830186886101c8565b82810360208401526102188185876101c8565b97965050505050505056fea26469706673582212202805aaa58e81f8ee4c36da696af3c9af23e44b13ecaaf47e7e4934e316688a4f64736f6c63430008140033",
  "linkReferences": {},
  "deployedLinkReferences": {}
}